S0220000687474703A2F2F737265636F72642E736F75726365666F7267652E6E65742F1D
S12378007EFD247EFD324FCE03FFA7000926FBA700CE0404DF10CE000CDF00CE0000DF1046
S1237810CE003FDF00CE3C34DF1086039709C609D709970BC601D70B970D8601D61CC50135
S12378202626C508260EC50427028A04C51027028A0820148A10C5022606C51026082008FB
S12378308A08C50427028A04970D8603970FC609D70F8E03FFBDFD065FD731BDFA6CBDFA09
S12378407786349710863C9710CE4E20860E01014A26FB0926F6D6315CC10326DCBDFA6C35
S12378508D39CEFE81BDFD4EBDFDD28146271B8142271B8156271C8153271DCEFE83BDFD24
S12378604EC6018607BDFD3220D68D1C20D2BDFAEF20CDBDF9DC20C87EFCB996302708DED2
S12378703CBDFD4E7F003039CEFE8ABDFD4EBDFDD281592628CEFEA8BDFD4EBDFDD28159D4
S1237880261BCEFF95BDFD4E5FD722BDFAE2BDFA80BDFA41C50126F9BDFA972701398601FE
S1237890972386109740BDFA77BDFA80BDFA5CC60BBDFA4F86039A01970186FFC610BDF991
S12378A0C94FC606BDF9C986FE5C8D7D96225C8D784F5C8D7496235C8D6F7C00234F5C8DCA
S12378B06886F75C8D6386FFC60B8D5D4FC6068D5886FB5C8D5386FFC6808D4D86F75C8D7B
S12378C04886FFC61B8D427A004026B54F970096012B1F854027F87C002296228123271CAA
S12378D086034394019701C6BCBDFA4FBDFA607EF911880897018A08970120D38D389630A4
S12378E02606CEFFBDBDFD4E3943970096012AFC880897018A0897015A26F139CEFEF4BD7D
S12378F0FD4ECEFFDFBDFD4ECEFF37BDFD4ED609C50127FA9608CEFFA1BDFD4E8605972B42
S12379007F00225FBDFAE2BDFA80262EBDFBFABDFA97262786019723CE0041DF3EBDFC20AC
S123791026197C00239623811126ED7C00229622812326D8CEFFCEBDFD4E397A002B26C3B5
S123792039960188049701D6008A049701533996018808D70097018A08970139C6FF2001E8
S12379305F86389710D700863C971039C80358585858CA0CD70139863C97118634971139DF
S12379408DDECEC7388DBAC58027080926F7CEFFE2200F4F9730399622260EC504260ACE2A
S1237950FEB7DF3C86FF973039C5102705CEFF5220F0C5082705CEFF5E20E75D2A05CEFF0A
S1237960E220DF4F973039C5102705CEFF6920D2C50427DECEFF7B20C9C54027EACEFF8642
S123797020C08D888D91BDFA5CC6FCBDFA4F394F972E972FCEFECBBDFD4EBDFDD281302DE9
S1237980F381322EEF973680309731CEFEDDBDFD4EBDFDD281302DF381322EEF973980307D
S12379909732CE0D04DF37DF3A9131260373002E7F003486179735962F2679963427049665
S12379A02E271ECEFEF4BDFD4ECE0036BDFD4E962E2765CEFF37BDFD4ED609C50127FA96C4
S12379B00896349722CE2000DF3E8605972B962E2754D631D733BDFAE2BDFA802671BDFA62
S12379C041C50126F98D73BDFA97266486019723962F263EBDFC2026577C002396238111FB
S12379D026EE7C00229622913526DAD62F262A73002F2083962E27A9CEFF13BDFD4ECE007F
S12379E039BDFD4E208D962F2604D63120A6D63220A2BDFC57261920C097348123270A86BA
S12379F02397357F002F7EFB37CEFFACBDFD4E397A002B27FAD6337EFB74BDFA5C86039A7A
S1237A00019701D62253BDFA4F86034394019701C6E8BDFA4FBDFA60BDFA41C50126F9399E
S1237A108D692622BDFA5CC677BDFA4FDE3E86039A019701BDFA6096012B0C854027F8DF3E
S1237A203E8D68BDFAC73988049701D6008A04970153E7000820E08D322624BDFA5CC657BD
S1237A30BDFA4FDE3E86039A019701E60053D70096012B0C854027F8DF3E8D2FBDFAD939F0
S1237A40880897018A0897010820E0BDFA7786014394018A029701BDFA5CD62353BDFA4FB2
S1237A5086034394019701BDFA803986034394019701BDFA60BDFA4139BDFD067F00228681
S1237A6005972BCE2000DF3E5FBDFAE2BDFA802632BDFA41C50126F9BDFBFABDFA97261E88
S1237A7086019723BDFC2026157C00239623811126F27C00229622810C26DD7E20007A009D
S1237A802B26C57EF8A0CE10A0DF2CCE1000DF24DF26DF288620A700088C1F0026F8DE261E
S1237A907F002A398D1AE601C50127FAA600FE0200398D0CE601C50227FAA700FE02003954
S1237AA0FF0200CE00085A2704080820F93936DF20DE20A60008DF2081042721810D271989
S1237AB0DE26A7000808DF268C1F0026048D3920E09C2C26DC8D2020D88D0420D432398D6B
S1237AC016DE268620A70008089C2426F8DF268C1F0026028D1239D62DD725CBA0D72DD659
S1237AD02CD724C900D72C39CE1000A6A0A700088C1E6026F6DF26DF248620A700088C1F65
S1237AE00026F8DF2C86A0DE28094A26FCDF28DE26397F00417F002ADE26DF28865FA70074
S1237AF09609850127FA960881082731810B2746810C275B810D275C81202DE0D62AC180A5
S1237B0027DAA7007C002A0808DF268C1F0026048D9620C89C2C26C4BDFD9720BF9C282751
S1237B10BB8620A7009C2426028D450909DF26A7007A002A20A68620A7009C28279E9C24D1
S1237B2026028D2C0909DF26A7007A002A20EBBDFD062088BDFD7FD62A2712DE289F20351F
S1237B30CE004132A70008315A26F89E20964139D625D72DC0A0D725D624D72CC200D724B5
S1237B40392304574841543F0D0453435241544348204449534B4554544520494E2044524B
S1237B5049564520303F200441524520594F5520535552453F200443414E27542046494E79
S1237B604420545241434B20300D04534F555243452044524956452023203D2004444553BC
S1237B7054494E4154494F4E2044524956452023203D20044C4F414420534F5552434520FC
S1237B804449534B4554544520494E20445249564520044C4F41442044455354494E415473
S1237B90494F4E204449534B4554544520494E2044524956452004505245535320414E5964
S1237BA0204B455920544F20434F4E54494E55450D045345454B204552524F520D044352E7
S1237BB043204552524F520D045245434F5244204E4F5420464F554E440D044C4F535420D4
S1237BC0444154410D0457524954452050524F544543540D04464F524D415454494E470D91
S1237BD004564552494659494E470D044241434B555020434F4D504C4554450D04464F52A2
S1237BE04D415420434F4D504C4554450D0456455249465920434F4D504C4554450D043086
S1237BF00D044449534B204E4F542052454144590D04000000000000000000000000F80680
S5030040BC
S9037C037D
